:020000020000FC
:10000000529A539A549A559856983327442755270D
:10001000662722270FE302D01CD0FECF0F931F9339
:100020001FB71F9318E0001F10F05A9801C05A9A8A
:100030005C9A00005C981A95B1F75B9A00005B9897
:100040001F911FBF1F910F910895222730E083D089
:10005000089555276627BB24CC244427F9B1F5FD24
:100060005395F5FF6395F6FDB394F6FFC3942AD03C
:1000700043954C3399F756176AF4BC1492F50895DA
:1000800068D01AD000E0CADF17D023952530C1F719
:100090002530D9F2E0E0F9B1F5FD04D0F5FF00D04C
:1000A0001DD0BACFE43689F20DD0E395F4CF0AD053
:1000B00043954436E1F70895442704D0439522330D
:1000C000E1F7089572E086E999E69A95000000004C
:1000D000E1F78A95C9F77A95B1F7089533950ED06F
:1000E00008954427303031F006D0E1DF303041F25E
:1000F0003030B9F708953A9501D00895303059F16C
:10010000313061F1323061F1333061F1343061F11D
:10011000353061F1363061F1373061F1383061F1FD
:10012000393061F13A3061F13B3061F13C3061F1DD
:100130003D3061F13E3061F13F3061F1303161F1CC
:10014000313161F1323161F1333160F5089500E010
:1001500065CF00E463CF33270FE360CF06E05ECFC7
:100160000BE55CCF0FE45ACF06E658CF0DE656CF2D
:100170000DE754CF07E052CF0FE750CF0FE64ECF39
:100180000FEB4CCF06E84ACF0BED48CF0FEC46CF34
:1001900006EE44CF0DEE42CF0DEF40CF07E83ECF45
:0801A0000FEF3CCF0FEE3ACF48
:00000001FF
